:020000040800F2
:10000000702D002051230008590600085B060008E7
:100010005F0600086306000867060008000000008D
:100020000000000000000000000000006B06000857
:100030006D06000800000000DF230008F52000081E
:100040006B2300086B2300086B2300086B23000858
:100050006B2300086B2300086B230008A50400082D
:100060006B2300086B2300086B2300086B23000838
:100070006B2300086B2300086B2300086B23000828
:100080006B2300086B2300086B2300086B23000818
:100090006B2300086B2300086B2300086B23000808
:1000A0006B2300086B2300086B2300086B230008F8
:1000B0006B2300086B2300086B2300086B230008E8
:1000C0006B2300086B2300086B2300086B230008D8
:1000D0006B230008BD2200086B2300086B23000877
:1000E000370500086B2300086B23000800F002F8B6
:1000F00000F03FF80AA090E8000C82448344AAF183
:100100000107DA4501D100F034F8AFF2090EBAE880
:100110000F0013F0010F18BFFB1A43F0010318473B
:100120000088000020880000103A24BF78C878C1F9
:10013000FAD8520724BF30C830C144BF04680C60ED
:10014000704700000023002400250026103A28BF35
:1001500078C1FBD8520728BF30C148BF0B60704739
:10016000642906F0ED86002070471FB51FBD10B54D
:1001700010BD06F0CBFF1146FFF7F7FF00F063F963
:1001800006F0E9FF03B4FFF7F2FF03BC02F03CF80E
:1001900008B508E06A460021F748006803F06DFFE3
:1001A000F64801F084FFF5E786B068E0F4484FF4C4
:1001B0008043F44A04A9009005A801F0AAFE00209B
:1001C0001021F1A24FF6FF73CDE9002102901F220A
:1001D0003C2101F05CFA1020022300909DF81420CD
:1001E0003C21282001F06EF800201021E9A24FF6F2
:1001F000FF73CDE9002102901F22502101F047FA40
:100200001020022300909DF810205021282001F09A
:1002100059F89DF814209DF81010E1A006F050FE4A
:100220009DF814001E2804DBD348006803F0D4FFB7
:1002300007E09DF81400182803DC0321DA4806F0D3
:10024000F7FB9DF8100046280EDBD848006803F045
:10025000C3FFD748007801280DD10020D449087089
:10026000072004F04FFB06E09DF81000322802DC66
:10027000072004F0B8FA4FF47A7001F098FF95E780
:100280001FB553E00A21012000F075FC044642F23C
:1002900010706043C4F5805190FBF1F080B2039080
:1002A00000201021C3A24FF6FF73CDE90021029078
:1002B0001F22282101F0EBF9BDF80C004FF47A71F0
:1002C00090FBF1F5102002232A46282100903020CF
:1002D00000F0F8FFBDF80C004FF47A7190FBF1F2DA
:1002E00001FB1205102002232A46282100904820F5
:1002F00000F0E8FFBDF80C0042F21071884205DB07
:1003000003A9B048006803F097FA0BE0AE4800F08C
:100310009FFA4FF6FF7023238022002100900846A9
:1003200000F094FC4FF47A7001F041FFAAE708B5A1
:1003300012E06A4600219D48006803F09EFE9C483A
:100340000078401C9A4908700D21974806F070FB10
:100350004FF47A7001F02BFFEBE71FB532E003AAF0
:1003600000219848006803F0ACF90446964800F074
:10037000CAFA002010218FA24FF6FF73CDE90021A9
:1003800002904FF47842142101F081F920884FF453
:100390007A7190FBF1F5102002232A461421009077
:1003A000302000F08FFF20884FF47A7190FBF1F23B
:1003B00001FB1205102002232A4614210090482038
:1003C00000F080FFCBE770B50446002500BF002099
:1003D00003F0CDFD75490860002003F0C8FD6649B3
:1003E0000860002003F0E7F87649086001F0D0FFCC
:1003F00005460623754A0021AFF2A10004F002F879
:100400000723734A0021AFF2D90003F0FBFF092351
:10041000704A0021AFF2971003F0F4FF08236E4AF0
:100420000021AFF27B2003F0EDFF05236B4A002192
:10043000AFF2A32003F0E6FF0A2004F063FA284697
:1004400001F0AAFF70BD10B54FF4A06004F0FAFBF4
:1004500001F05CFE4FF400524A495B4800F012FA8A
:100460004FF400425E49454801F0E0FD43F63F018C
:10047000632000F0E6FA00F025FB00F097FB01F0A6
:10048000F7FA4FF4165001F0CDFE02F05CF90A23A2
:10049000544A0021AFF2D10003F0B4FF02F078FA21
:1004A000002010BD0EB502F064F9322001F07FFE8D
:1004B00002214B4804F0DDFF002836D14A4800787D
:1004C000401C49490870087800EBD0714910A0EB36
:1004D0004101012906D1294801F08EFD052004F0D3
:1004E00011FA0DE04049087800EBD0714910A0EBFB
:1004F000410129B9052004F076F900203A49087035
:100500000020102139A24FF6FF73CDE9002102909F
:100510001F22642101F0BBF8102002230090324812
:1005200002786421282000F0CDFE022004F0A5FE10
:1005300002F03AF90EBD0EB502F01BF9322001F0BF
:1005400036FE4FF48051264804F093FF002876D100
:1005500028480078401C27490870087800EBD071C3
:100560004910A0EB4101012946D1174800F070F96C
:10057000062004F0C7F94DE0080000201C00002010
:10058000140000200010014054656D703A30304373
:100590000000000048756D693A3030524800000094
:1005A00025642C25640000000004004004000020A5
:1005B000260000204C696768743A30302E30304B8A
:1005C00000000000000000200C000020B409002002
:1005D000B40A0020B4120020B41A0020B41B00207A
:1005E000000C0140B401002024000020466C61672B
:1005F0003A000000250000201449087800EBD07173
:100600004910A0EB410129B9062004F0ECF80020C4
:100610000E490870002010210DA24FF6FF73CDE99E
:10062000002102901F22782101F031F810200223CE
:100630000090064802787821282000F043FE4FF40D
:10064000805004F01AFE02F0AFF80EBD2500002025
:100650004D61726B3A000000704700BFFEE700BFBB
:10066000FEE700BFFEE700BFFEE7704770470000EF
:100670000CB50020019000906C48006840F4803078
:100680006A49086000BF6948006800F400300090C3
:100690000198401C0190009818B90198B0F5A06F1E
:1006A000F1D16248006800F4003010B101200090E0
:1006B00001E0002000900098012843D15C480068C8
:1006C00040F010005A4908600846006820F0030016
:1006D00008600846006840F002000860534840681F
:1006E000524948600846406848600846406840F4FF
:1006F000806048600846406820F47C1048600846E6
:10070000406840F4E81048600846006840F0807097
:10071000086000BF4548006800F000700028F9D06C
:100720004248406820F0030040494860084640685D
:1007300040F00200486000BF3C48406800F00C00F8
:100740000828F9D10CBD10B5FFF792FF10BD10B508
:100750003648006840F001003449086008464068A7
:100760003449084031494860084600683249084029
:100770002E4908600846006820F48020086008467A
:10078000406820F4FE0048604FF41F008860FFF7C7
:10079000DAFF4FF000602949086010BD10B5002154
:1007A00000200022214B5B6803F00C0121B10429D9
:1007B00006D0082928D107E0214B224C236027E0EE
:1007C0001F4B204C236023E0184B5B6803F4701030
:1007D000164B5B6803F48032022303EB904022B98E
:1007E000194B4343174C23600DE0104B5B6803F437
:1007F000003323B1144B4343124C236003E0104BEE
:100800004343104C236003E00D4B0E4C236000BFAC
:1008100000BF064B5B68C3F303130C4CE15C094B50
:100820001B68CB40074C236010BD00000010024045
:10083000002002400000FFF8FFFFF6FE08ED00E098
:1008400000127A002800002000093D002C00002042
:1008500010B50446A188206804F025FE10BD38B507
:100860000446A088ADF8000010208DF80300032096
:100870008DF802006946206804F068FD2046FFF705
:10088000E7FF38BD70B505460C4616462148844240
:1008900004D10121042005F015F82EE01E48844201
:1008A00004D10121082005F00DF826E01B48844200
:1008B00004D10121102005F005F81EE018488442FB
:1008C00004D10121202004F0FDFF16E015488442E8
:1008D00004D10121402004F0F5FF0EE012488442CB
:1008E00004D10121802004F0EDFF06E00F4884428E
:1008F00003D10121801504F0E5FF2C60AE8028466D
:10090000FFF7ADFF70BD10B50446A188206804F064
:10091000CCFD10BD00080140000C0140001001405A
:100920000014014000180140001C0140002001405B
:1009300008B50121442004F0C5FF1020ADF80000E7
:1009400028208DF803006946234804F0FFFC0120AD
:10095000ADF8000028208DF8030069461F4804F018
:10096000F5FC08BD10B5044614B101201C490870FF
:100970001B48007800B302211A4804F07AFD0128D0
:1009800005D00121154804F074FD012814D10A2076
:1009900001F00DFC0020124908700221114804F0FA
:1009A00068FD012800D110BD01210C4804F061FD53
:1009B00001280ED10420F6E702210A4804F059FD6F
:1009C00038B90121054804F054FD10B9012004494B
:1009D00008700020E7E7000000180140000801400F
:1009E0003C000020000C01407FB505460C4601216B
:1009F000022004F074FFADF80850ADF80440002068
:100A0000ADF80A00ADF8060001A92C4805F018FA67
:100A100001221146294805F08AFD1D208DF80000AD
:100A200000208DF8010003208DF8020001208DF8D0
:100A30000300684604F00BF90121204805F05CFD35
:100A40007FBD30B589B005460C460121022004F077
:100A500046FF0121082004F035FF0120ADF82000F9
:100A600018208DF8230003208DF8220008A91448CF
:100A700004F06CFCADF81850ADF814400020ADF84F
:100A80001A00ADF8160005A90C4805F0D9F9602048
:100A9000ADF804000120ADF806000020ADF80C0010
:100AA00001A9064805F098FA0821044805F06AFEF5
:100AB0000121024805F020FD09B030BD00040040CE
:100AC000000C014000B587B001214FF4017004F023
:100AD000F9FE4FF4004004F059FE0220ADF8040086
:100AE00000208DF8070001A92E4804F02FFC2E48A5
:100AF00004F016F9002002908DF80C008DF80D001E
:100B00004FF4602004900020059001208DF818001B
:100B100002A9254804F02BF90121234804F053F9D8
:100B2000214804F072F900BF1F4804F073F900284F
:100B3000FAD11D4804F078F900BF1B4804F079F998
:100B40000028FAD107B000BD10B5044607230122E2
:100B50002146154804F0A3F90121134804F073F964
:100B600000BF0221104804F0DFFA0028F9D00E4837
:100B700004F0FCF910BD2DE9F04107460C460025B4
:100B8000002608E03846FFF7DFFF0544052001F0A6
:100B90000EFB701CC6B2A642F4DBB5FBF4F080B2CB
:100BA000BDE8F08100080140002401400EB5FFF7C8
:100BB000BFFE0121084604F085FE0121084604F02D
:100BC000DBFC0220019000208DF808000C208DF83D
:100BD000090001208DF80A0001A804F0D7FA0C21C1
:100BE000012004F0C9FC4FF4805001900C208DF8D6
:100BF000090001A804F0CAFA28208DF8000002209C
:100C00008DF8010000208DF8020001208DF803000E
:100C1000684604F01CF807208DF8000002208DF8CB
:100C2000010001208DF802008DF80300684604F0F1
:100C30000EF80EBD70B505460E46144631462846E0
:100C400000F072FE204600F02EFE70BD2DE9F05F30
:100C500004460D4616461F46301B401C1FFA80FAFC
:100C6000781B401C1FFA80FB3B4632462946204633
:100C700000F030FE4FF000080FE04FF0000906E0F2
:100C80000A9800F010FE09F101001FFA80F9D14521
:100C9000F6DB08F101001FFA80F8D845EDDBFE48CD
:100CA0004088401E83B2FC480088401E82B200216A
:100CB000084600F00FFEBDE8F09F2DE9FF4F85B01C
:100CC00081468A460020049003900798A0EB09050E
:100CD0000898A0EB0A06CDF80890CDF804A0002DE6
:100CE00001DD012705E00DB9002702E04FF0FF37D5
:100CF0006D42002E02DD4FF0010806E016B94FF0FC
:100D0000000802E04FF0FF387642B54201DD2C4684
:100D100000E034464FF0000B21E0019A91B2029AB4
:100D200090B200F00BFE04982844049003983044DD
:100D300003900498A04205DD0498001B04900298DB
:100D4000384402900398A04205DD0398001B0390ED
:100D50000198404401900BF101001FFA80FB601CD8
:100D60008345DADD09B0BDE8F08F2DE9F041044696
:100D70000D4616461F462B46324629462046FFF7AB
:100D80009CFF3B46224629462046FFF796FF3B46FE
:100D9000324639462046FFF790FF3B463246294609
:100DA0003046FFF78AFFBDE8F081F8B504460D46EE
:100DB00016461F46B94800883B46324629460090F1
:100DC0002046FFF743FFF8BD2DE9F04104460D46EC
:100DD00016461F46DDF81880EA1991B2A21990B2A2
:100DE0004246FFF727FFEA1991B2A21B90B2424692
:100DF000FFF720FFEA1B91B2A21990B24246FFF71B
:100E000019FFEA1B91B2A21B90B24246FFF712FFF4
:100E1000AA1991B2E21990B24246FFF70BFFAA1944
:100E200091B2E21B90B24246FFF704FFAA1B91B2B7
:100E3000E21990B24246FFF7FDFEAA1B91B2E21BF7
:100E400090B24246FFF7F6FEBDE8F0812DE9FF4F74
:100E500081B0824617469846DDF838B000244546F2
:100E60004FEA4800C0F10306BBF1000F1FD01BE0A2
:100E7000A14608E04B462246009750460299FFF7EC
:100E8000A3FF09F10109A945F4DD002E04DA0420CD
:100E900000FB0460861D06E0601B042101FB00606E
:100EA00000F10A066D1E641CAC42E1DD18E015E09D
:100EB0002B462246009750460299FFF785FF002EE9
:100EC00004DA042000FB0460861D06E0601B042198
:100ED00001FB006000F10A066D1E641CAC42E7DDF8
:100EE00005B0BDE8F08F2DE9F04704460D461646E3
:100EF0001F46DDE908893B46324629462046FFF772
:100F0000DCFE4B46424639463046FFF7D6FE2B46BE
:100F1000224649464046FFF7D0FEBDE8F0870288EA
:100F20000B8803800A8070472DE9FF4F85B00026AB
:100F30000027BDF81800BDF82010884207DD08A979
:100F400006A8FFF7ECFF07A905A8FFF7E8FFBDF823
:100F50002000BDF84C10884207DD08A913A8FFF750
:100F6000DEFF07A912A8FFF7DAFFBDF81800BDF8E9
:100F70002010884207DD08A906A8FFF7D0FF07A9BF
:100F800005A8FFF7CCFFBDF81800BDF84C1088424B
:100F900038D1BDF8140003900490BDF81C00BDF8D2
:100FA0001010884203DABDF81C00049008E0BDF878
:100FB0001C00BDF80C10884202DDBDF81C00039037
:100FC000BDF84800BDF81010884203DABDF84800AB
:100FD000049008E0BDF84800BDF80C10884202DD1E
:100FE000BDF8480003902D4800880090BDF81830E7
:100FF000BDF80C201946BDF81000FFF727FE09B018
:10100000BDE8F08FBDF81C00BDF81410A0EB010B7B
:10101000BDF82000BDF81810401A0290BDF8480035
:10102000BDF81410451ABDF84C00BDF81810A0EB1F
:101030000109BDF84800BDF81C10A0EB010ABDF87D
:101040004C00BDF82010401A0190BDF82000BDF8FA
:101050004C10884202D1BDF8208004E0BDF8200089
:10106000401E1FFA80F8BDF818402CE0029896FB4D
:10107000F0F0BDF81410084480B2049097FBF9F02A
:10108000BDF81410084480B203905E442F44BDF8AC
:101090001000BDF80C1003E0B81B00203E0000203B
:1010A000884203DD03A904A8FFF739FFFE48008842
:1010B00023460090BDF80C202146BDF81000FFF734
:1010C000C5FD601C84B24445D0DDBDF82000201A67
:1010D00000FB0AF6BDF81800201A00FB05F727E010
:1010E000019896FBF0F0BDF81C10084480B2049003
:1010F00097FBF9F0BDF81410084480B203905644F1
:101100002F44BDF81000BDF80C10884203DD03A980
:1011100004A8FFF704FFE448008823460090BDF8C8
:101120000C202146BDF81000FFF790FD601C84B232
:10113000BDF84C008442D3DD00BF60E72DE9FF4FCE
:1011400083B081468A469346DDE91064D64800881C
:101150000290A6F12000C6B204EBD47009EB600047
:10116000401E82B20AEB0400401E83B2514648463C
:10117000019400F0AFFB129850BB002525E00C2C29
:1011800007D106EB4600C94901EB800010F8058045
:1011900004E0C74800EB061010F8058000270DE0BA
:1011A00008F0010018B1584600F07DFB02E00698F7
:1011B00000F079FB4FEA6808781CC7B204EBD471E1
:1011C000B7EB610FECDB681CC5B2A542D7DB2DE0A5
:1011D000002529E00C2C07D106EB4600B34901EBB2
:1011E000800010F8058004E0B14800EB061010F80C
:1011F0000580002711E0AC48A0F800B008F001001D
:1012000038B10AEB050291B209EB070290B200F087
:1012100095FB4FEA6808781CC7B204EBD471B7EBB2
:10122000610FE8DB681CC5B2A542D3DB9E4902987A
:101230000880A0484088401E83B29E480088401E17
:1012400082B20021084600F045FB07B0BDE8F08FF0
:101250002DE9FE4306460F4615461C46DDF828805C
:101260001DE094480088401EB04204DB914840884D
:10127000401EB84201DABDE8FE8320788DE82101E6
:101280008D4803888848028839463046FFF756FF64
:10129000284605EBD07106EB61018EB2641C207804
:1012A0007E2802DC20782028DBDA00BFE3E710B5D7
:1012B0000246012000E050430B1EA1F10104E1B2FF
:1012C000F9D110BD2DE9FF4F83B0074691461E4668
:1012D000109C4FF0000A002543E0701B401EC1B275
:1012E0000A20FFF7E4FFB9FBF0F00A21B0FBF1F2AE
:1012F00001FB1208BAF1000F1BD1701EA84218DDC5
:10130000B8F1000F13D100202021A346CDE900142D
:10131000029004EBDB71491001FB057188B266494C
:101320000B8861490A880499FFF708FF17E04FF01E
:10133000010A002108F13000C0B2A346CDE9014105
:10134000009004EBDB71491001FB057188B25A492A
:101350000B8855490A880499FFF7F0FE00BF681C06
:10136000C5B2B542B9DB07B0BDE8F08F2DE9FC5F2F
:101370000546884691469A46DDF830B000953E20F5
:10138000019000245FE004EB04104C4911F81000B8
:101390009BF80010884253D104EB0410474901EB3D
:1013A000400040789BF80110884249D108F10F00B5
:1013B00083B205F10F0082B24146284600F08AFA56
:1013C00000263BE0002734E00D9890B904EB0410B0
:1013D0003A4901EB4000801C805D80213941084082
:1013E00018B1484600F05FFA21E0504600F05BFA81
:1013F0001DE02D48A0F8009004EB04102F4901EBEC
:101400004000801C805D80213941084018B1414670
:10141000284600F093FA681C85B20098281A102814
:1014200005D1009D08F101001FFA80F803E0781C47
:10143000C7B2082FC8DB00BF701CC6B2202EC1DBAC
:1014400000BF601C84B2019884429CDB194840882C
:10145000401E83B217480088401E82B20021084611
:1014600000F038FABDE8FC9F2DE9FC5F0546884690
:1014700091469A46DDF830B000950720019000248F
:1014800076E004EB840000EB44100D4911F81000E5
:101490009BF80010884268D104EB840000EB4410F4
:1014A000074901EB40000DE03E000020707100088C
:1014B000E4750008B81B002040000020D47B000821
:1014C0001084000840789BF8011088424DD108F143
:1014D000170083B205F1170082B24146284600F09A
:1014E000F9F900263FE0002738E00D98A0B904EB99
:1014F000840000EB4410CD4901EB4000801C805D6E
:1015000080213941084018B1484600F0CCF923E069
:10151000504600F0C8F91FE0C548A0F8009004EB61
:10152000840000EB4410C14901EB4000801C805D49
:1015300080213941084018B14146284600F0FEF9A3
:10154000681C85B20098281A182805D1009D08F15A
:1015500001001FFA80F803E0781CC7B2082FC4DB33
:1015600000BF701CC6B2482EBDDB00BF601C84B239
:101570000198844285DBAF484088401E83B2AD4865
:101580000088401E82B20021084600F0A3F9BDE8A1
:10159000FC9F2DE9FC5F0546884691469A46DDF89A
:1015A00030B000950420019000245FE004EB84102B
:1015B000A14911F810009BF80010884253D104EBA8
:1015C00084109D4901EB400040789BF8011088424F
:1015D00049D108F11F0083B205F11F0082B24146D4
:1015E000284600F077F900263BE0002734E00D980C
:1015F00090B904EB8410904901EB4000801C805DA1
:1016000080213941084018B1484600F04CF921E0EA
:10161000504600F048F91DE08548A0F8009004EB22
:101620008410854901EB4000801C805D8021394198
:10163000084018B14146284600F080F9681C85B280
:101640000098281A202805D1009D08F101001FFAF2
:1016500080F803E0781CC7B2082FC8DB00BF701CFD
:10166000C6B2802EC1DB00BF601C84B201988442E8
:101670009CDB70484088401E83B26E480088401E44
:1016800082B20021084600F025F9BDE8FC9F2DE953
:10169000FF4F83B0064688469146DDE91147109D0D
:1016A000B2464FF0000B71E0BBF1000F40D104EBEC
:1016B000D471604A1288A2EB6101B14204DB5D493A
:1016C0004988091B414502DA07B0BDE8F08F287848
:1016D000802802DD4FF0010B58E028780D2806D154
:1016E00008EB04001FFA80F856466D1C1EE0102C13
:1016F0000DDD102128788DE883004A4641463046AA
:10170000069BFFF71BFD06F1080086B20EE0287865
:101710008DE891004A4641463046069BFFF70EFD94
:10172000204604EBD07106EB61018EB26D1C2DE0FA
:1017300040480088001BB04204DB3E484088001B44
:10174000404500DAC0E74FF0000B202C08D1CDE96E
:1017500000574A4641463046069BFFF71AFF12E003
:10176000182C08D1CDE900574A4641463046069B21
:10177000FFF77AFE07E0CDE900574A46414630467A
:10178000069BFFF7F3FDAD1C301986B228780028C0
:101790008AD100BF98E72DE9FE4F0E4617469846BE
:1017A000DDE90D9A0C9C204605F006FC85B2214926
:1017B0000988A1EBC50000EBD071C1F34F0B434684
:1017C0003A46314658468DE81006FFF760FFBDE8FF
:1017D000FE8F2DE9F04706460F46154607F1270014
:1017E00083B206F1270082B23946304600F072F823
:1017F00000240AE015F8149005EB440090F80180ED
:1018000049EA082000F04FF8641CB4F5C86FF1DB1A
:1018100008484088401E83B206480088401E82B2B5
:101820000021084600F056F8BDE8F0871084000853
:101830003E000020B81B00201686000810B50446A4
:101840004FF40070FE490860802008602146FD4882
:1018500000F038FA4FF40070F949091F086010BD14
:1018600010B504464FF40070F54908608020091F48
:1018700008602146F34800F025FA4FF40070F04963
:10188000091F086010BD70B505460C462846FFF7D5
:10189000D5FFE0B2FFF7E4FF70BD10B5EA49087A62
:1018A000FFF7CCFF10BD10B504464FF40070E449BB
:1018B00008608020091F08602112E24800F002FA47
:1018C000E1B2E04800F0FEF94FF40070DC49091F76
:1018D000086010BD2DE9F04104460D4616461F462E
:1018E000D949887AFFF7AAFF0020FFF7B9FFE0B2D5
:1018F000FFF7B6FF0020FFF7B3FFF0B2FFF7B0FF2E
:10190000D149087BFFF79AFF0020FFF7A9FFE8B253
:10191000FFF7A6FF0020FFF7A3FFF8B2FFF7A0FF35
:10192000FFF7BBFFBDE8F08170B504460D462B46BE
:10193000224629462046FFF7CDFF70BD70B504460C
:101940000D4629462046FFF7EFFFC0480088FFF705
:10195000AAFF70BD70B50646BB484088401E83B2E2
:10196000B9480088401E82B200210846FFF7B2FF46
:101970004FF40070B24908608020091F08600024FD
:101980000AE0002503E03046FFF78DFF6D1CAE48EE
:101990000088A842F7D8641CAB484088A042F0D821
:1019A0004FF40070A649091F086070BD08B50121F9
:1019B000082003F087FF4FF47070ADF8000003209B
:1019C0008DF8020010208DF8030069469C481438F9
:1019D00003F0BCFC08BD10B54FF480709849086056
:1019E000642000F0E4FB4FF480709549091F086003
:1019F000322000F0DCFB10BD10B504462A209249CD
:101A000048812B2088812C20088134B1012C0ED0F4
:101A1000022C16D0032C28D11DE080208A49088092
:101A2000A0204880C0213620FFF72DFF1EE0A02017
:101A30008549088080204880A0213620FFF723FFB9
:101A400014E0802080490880A020488000213620B2
:101A5000FFF719FF0AE0A0207B490880802048801A
:101A600060213620FFF70FFF00E000BF00BF10BD70
:101A700010B500F04BF9FFF799FFFFF7ACFF11200D
:101A8000FFF7DCFE782000F092FBB120FFF7D6FED6
:101A90000120FFF7E5FE2C20FFF7E2FE2D20FFF7E7
:101AA000DFFEB220FFF7CAFE0120FFF7D9FE2C208F
:101AB000FFF7D6FE2D20FFF7D3FEB320FFF7BEFEC3
:101AC0000120FFF7CDFE2C20FFF7CAFE2D20FFF7E7
:101AD000C7FE0120FFF7C4FE2C20FFF7C1FE2D201A
:101AE000FFF7BEFEB420FFF7A9FE0720FFF7B8FE00
:101AF000C020FFF7A3FEA220FFF7B2FE0220FFF7EF
:101B0000AFFE8420FFF7ACFEC120FFF797FEC52093
:101B1000FFF7A6FEC220FFF791FE0A20FFF7A0FE06
:101B20000020FFF79DFEC320FFF788FE8A20FFF705
:101B300097FE2A20FFF794FEC420FFF77FFE8A203D
:101B4000FFF78EFEEE20FFF78BFEC520FFF776FE37
:101B50000E20FFF785FE3620FFF770FEC020FFF74E
:101B60007FFEE020FFF76AFE0F20FFF779FE1A20C4
:101B7000FFF776FE0F20FFF773FE1820FFF770FEC9
:101B80002F20FFF76DFE2820FFF76AFE2020FFF7C9
:101B900067FE2220FFF764FE1F20FFF761FE1B2077
:101BA000FFF75EFE2320FFF75BFE3720FFF758FEAE
:101BB0000020FFF755FE0720FFF752FE0220FFF737
:101BC0004FFE1020FFF74CFEE120FFF737FE0F20FD
:101BD000FFF746FE1B20FFF743FE0F20FFF740FEF6
:101BE0001720FFF73DFE3320FFF73AFE2C20FFF7CA
:101BF00037FE2920FFF734FE2E20FFF731FE30207C
:101C0000FFF72EFE3020FFF72BFE3920FFF728FECE
:101C10003F20FFF725FE0020FFF722FE0720FFF7F9
:101C20001FFE0320FFF71CFE1020FFF719FE2A20DD
:101C3000FFF704FE0020FFF713FE002008E000007D
:101C4000140C014000300140B81B00203E00002071
:101C5000FFF706FE0020FFF703FE7F20FFF700FEE0
:101C60002B20FFF7EBFD0020FFF7FAFD0020FFF728
:101C7000F7FD0020FFF7F4FD9F20FFF7F1FDF020B6
:101C8000FFF7DCFD0120FFF7EBFDF620FFF7D6FDA7
:101C90000020FFF7E5FD3A20FFF7D0FD0520FFF714
:101CA000DFFD2920FFF7CAFD0020FFF7A5FE012078
:101CB000034908604FF6FF70FFF74CFE10BD0000AF
:101CC00098812142024600BF108900F002000028DE
:101CD000FAD0918100BF108900F001000028FAD0ED
:101CE0009089C0B2704702884FF6C7731A400280CD
:101CF000012902D10288028003E0028842F020021A
:101D00000280028842F040020280704700B587B02E
:101D10000121052003F0D6FDA020ADF8040003202A
:101D20008DF8060018208DF8070001A91B4803F064
:101D30000DFB4020ADF8040048208DF8070003207B
:101D40008DF8060001A9154803F000FB01210803E6
:101D500003F0B8FD0020ADF808004FF48270ADF834
:101D60000A000020ADF80C00ADF80E00ADF8100030
:101D70004FF40070ADF812000020ADF81400ADF87B
:101D800016000720ADF8180002A9054803F024FE4C
:101D90000121034803F0C5FE07B000BD0008014063
:101DA0000030014010B504468A492068884204D1B9
:101DB0000121042003F086FD34E087492068884231
:101DC00004D10121082003F07DFD2BE08349206828
:101DD000884204D10121102003F074FD22E08049E3
:101DE0002068884204D10121202003F06BFD19E016
:101DF0007C492068884204D10121402003F062FD23
:101E000010E079492068884204D10121802003F044
:101E100059FD07E075492068884203D101218015EA
:101E200003F050FD10BD38B504462046FFF7BAFF59
:101E300010208DF80300A088ADF8000003208DF875
:101E400002006946206803F081FAA188206803F047
:101E50002CFB142000F0ABF9A188206803F023FBD1
:101E60001E2000F079F9A188206803F01EFB38BD20
:101E700038B504462046FFF795FF04208DF803008F
:101E8000A088ADF8000003208DF8020069462068A4
:101E900003F05CFA38BD10B50446A188206803F051
:101EA000E8FA10BD2DE9F041074600250024002680
:101EB0002AE004E0012000F04FF9601CC4B238466B
:101EC000FFF7E9FF08B9642CF4DB00241E2000F0C2
:101ED00043F9A0463846FFF7DEFF012800D18046CF
:101EE00004E0012000F038F9601CC4B23846FFF766
:101EF000D2FF012801D1642CF3DB00246806050E13
:101F000045EA0805701CC6B2082ED2DB2846BDE89B
:101F1000F0812DE9F0470746884691469A46089E8B
:101F20000025C6F80090A6F804A03046FFF77BFF16
:101F30003046FFF79DFF142000F00EF93046FFF702
:101F4000AAFF002828D104E0012000F005F9681C50
:101F5000C5B23046FFF79FFF08B9642DF4DB0025BA
:101F600004E0012000F0F8F8681CC5B23046FFF725
:101F700092FF012801D1642DF3DB0025002406E047
:101F80003046FFF78FFF1A490855601CC4B2052C74
:101F9000F6DB322000F0E0F8154800781449497863
:101FA00008441349897808441149C97808441149FB
:101FB00008600F4800790978884209D10C480078F8
:101FC00088F800000A48807838700120BDE8F08762
:101FD0000020FBE700080140000C01400010014018
:101FE0000014014000180140001C01400020014085
:101FF000440000204C00002010B50446A188206851
:1020000003F053FA10BD38B50446A088ADF80000BF
:1020100010208DF8030003208DF802006946206827
:1020200003F094F92046FFF7E7FF38BD70B5054689
:102030000C4616462148844204D10121042003F0B5
:1020400041FC2EE01E48844204D10121082003F007
:1020500039FC26E01B48844204D10121102003F002
:1020600031FC1EE01848844204D10121202003F0F5
:1020700029FC16E01548844204D10121402003F0D8
:1020800021FC0EE01248844204D10121802003F09B
:1020900019FC06E00F48844203D10121801503F0AA
:1020A00011FC2C60AE802846FFF7ADFF70BD10B567
:1020B0000446A188206803F0F6F910BD000801402D
:1020C000000C0140001001400014014000180140C4
:1020D000001C01400020014010B500F09DFB10BD28
:1020E00010B500F0DEFB10BD10B50446204602F02E
:1020F000D1FC10BD10B53E480078012805D100F094
:1021000038FB00F07CFC00F04FFB10BD10B56FF009
:10211000040002F0E6FD374800683749B0FBF1F0F3
:1021200036490870334800683349B0FBF1F441F296
:10213000883044430520324908804FF0E020006990
:1021400040F002004FF0E021086108464461006958
:1021500040F00100086110BD2DE9F0470746002658
:102160004FF0E020D0F814902448007807FB00F8E6
:1021700000BFFFF7B1FF4FF0E020856911E04FF09D
:10218000E0208469AC420CD0AC4202D2281B064449
:1021900003E0A9EB0400284406442546464500D345
:1021A00000E0ECE700BFFFF79BFFBDE8F08770B5EC
:1021B00004460F480078A0B11248007888B910484A
:1021C0000088844206DB0E48008894FBF0F5284620
:1021D000FFF78AFF0A48008894FBF0F100FB1140EA
:1021E00084B24FF47A7104FB01F0FFF7B5FF70BDC4
:1021F000820000202800002000127A0050000020F9
:10220000520000207500002000BF704700BF4C4AFC
:10221000128802F04002002AF9D0C2B2484B1B1DBE
:102220001A80704710B586B00446012144F20400BC
:1022300003F048FB4FF40070ADF8140003208DF854
:10224000160018208DF8170005A93E4803F07EF807
:102250004FF48060ADF8140004208DF8170005A934
:10226000384803F073F825208DF8000003208DF81E
:1022700001008DF8020001208DF80300684602F08D
:10228000E6FC01940020ADF80800ADF80A00ADF8B6
:102290000C00ADF810000C20ADF80E0001A9284884
:1022A00004F04BFC012240F22551254804F0DDFCEE
:1022B0000121234804F0CDFC06B010BD10B500F09C
:1022C00058FA40F225511E4804F0B4FD10B31C48E2
:1022D00004F030FDC4B21C48008800F40040C8B9C6
:1022E0001948008800F4804060B10A2C03D0002017
:1022F0001549088020E01448008840F40040124945
:10230000088019E00D2C06D10F48008840F4804069
:102310000D49088010E00C480088C0F30D000B49FF
:102320000C5409480088401C07490880084600886A
:10233000C72801DD0020088000F036FA10BD00003B
:10234000003801400008014058000020C61B002052
:102350000948804709480047FEE7FEE7FEE7FEE739
:10236000FEE7FEE7FEE7FEE7FEE7FEE70448054975
:10237000054A064B704700004F070008ED000008B3
:1023800070270020702D0020702900207029002067
:10239000EFF3108072B6704780F310887047204CBE
:1023A000204D25604FF0000484F309881E4C4FF047
:1023B000010525701D4C4FF08055256062B6FEE783
:1023C00030B41A4C4FF08055256030BC704730B4A3
:1023D000164C4FF08055256030BC704700BF72B678
:1023E000EFF3098028B1203880E8F00F1049096820
:1023F000086000B50F4880475DF804EB0E480F49B0
:102400000A7802700A480E490A680260106890E86B
:10241000F00F203080F309884EF0040E62B670474A
:1024200020ED00E00000FFFF8200002004ED00E04E
:1024300088000020EB2400087700002078000020AE
:102440009000002070477047704770477047704792
:1024500070B5044610464FF080750560051F28468C
:102460002C606FF00106051F28462E604FF01236D3
:10247000051F28462E604FF00336051F28462E60A4
:102480004FF00236051F28462E607610051F28469D
:102490002E60051F284629604FF01136051F28467B
:1024A0002E604FF01036051F28462E604FF009367B
:1024B000051F28462E604FF00836051F28462E605F
:1024C0004FF00736051F28462E604FF00636051FD1
:1024D00028462E604FF00536051F28462E604FF027
:1024E0000436051F28462E6070BD70477047704740
:1024F000704700007CB5002514E06946284602F0CC
:10250000BFF9064666B9F74850F8254044B1012C9A
:1025100006D0D4E9020100EB810060640198A06458
:10252000681CC5B23F2DE8D97CBD002400BF02E085
:10253000282002F0AFFAEC4800780028F8D0EB48E9
:1025400000686421B0FBF1F0E849086008460068C3
:1025500028B90020E6490870FF2002F0D3F900BF37
:10256000FFF716FF0446E3480068E34908600020CF
:10257000E04908602046FFF70FFFDF480068DB49AD
:102580000968B0FBF1F0C0F16400D9490870FFF7A9
:102590005EFFFFF7AFFF142002F07CFAE0E700B522
:1025A00087B0032000218022D44BCDE90132CDE950
:1025B00003104FF6FE703E23D14A0090AFF2950013
:1025C00001F077FF06AACFA13E2002F0DBF807B0AA
:1025D00000BD002400BF00BFFFF7DAFE0446C54877
:1025E0000068401CC34908602046FFF7D5FEFFF78E
:1025F0002DFFF1E700B587B0032000218022C54BF5
:10260000CDE90132CDE903104FF6FF703F23C24AF6
:102610000090AFF2410001F04CFF06AABFA13F209D
:1026200002F0B0F807B000BD04E0002200F8012B72
:102630004A1E91B20029F8D1704770B5C821BB4835
:10264000FFF7F2FF00230FE0581C85B203EB830075
:10265000B64901EB800405EB850001EB8006002004
:1026600020706660581C83B2092BEDD303EB830006
:10267000AE4901EB80040020207060600846AC4940
:10268000086070BD70B54FF47C71AA48FFF7CCFFAD
:102690004FF480719348FFF7C7FF002413E0601CDC
:1026A000C5B2C4EBC40000EB4000A24901EB8003BB
:1026B000C5EBC50000EB400001EB80065E619EA00B
:1026C000D864601CC4B20B2CE9D3C4EBC40000EB8B
:1026D0004000984901EB80030020586196A0D8641F
:1026E00000209649086093489549086070BD002114
:1026F000944A1170002004E00021934A1154411CB7
:10270000C8B20828F8D30021904A1170904A11707D
:10271000904A1160904A1160704700208F4908600C
:102720008F4908708F4908708F4908708F49087069
:102730008F4908606F4908606F4908606B490860FD
:1027400069490870704710B5FFF77CFEFFF7E5FF99
:10275000FFF7CDFFFFF796FFFFF76FFF00F0EAFEF0
:1027600001F0C7FBFFF746FFFFF719FFFFF76BFE0E
:1027700010BD7E480078012808D179480078FF28EC
:1027800004D277480078401C754908707047794931
:102790006C4A1278885C6C49095C764A515C01EBA2
:1027A000C0016B4A1170704710B500246F48007863
:1027B000012830D1FFF7ECFD04466948007820B1CC
:1027C00067480078401E6649087065480078F8B987
:1027D00064480078E0B9FFF7DAFF42485C490978BD
:1027E00050F821005B49086059480078574909783A
:1027F00088420DD057480068806B401C55490968D5
:1028000088635B480068401C59490860FFF7DFFD9A
:102810002046FFF7C1FD10BD10B5002453480078D5
:10282000012811D1FFF7B4FD04464D48007840B9A6
:102830004C480078FF2804D24A480078401C494997
:1028400008702046FFF7A8FD10BD10B50024FFF763
:102850009FFD044642480078F8B942480078E0B944
:10286000FFF795FF1F483A49097850F82100394988
:102870000860374800783549097888420DD03548D6
:102880000068806B401C33490968886338480068D9
:10289000401C37490860FFF793FD2046FFF77CFD99
:1028A00010BD10B500243148007801286FD1FFF722
:1028B0006FFD04462B48007880B12A480078401EFE
:1028C000284908700846007848B92548007838B982
:1028D0002046FFF761FDFFF7B8FF58E054E04FE0F6
:1028E0004AE00000A8210020740000206C000020B5
:1028F000680000208400002070000020A81D002037
:10290000A41F002075432F4F532D49492053746154
:1029100074000000A81F0020A421002075432F4F41
:10292000532D49492049646C65000000901C00202B
:1029300060000020A82200203F000000940000203A
:102940008C000020790000207A0000207700002011
:10295000780000209000002088000020A0000020C7
:1029600075000020760000208300002082000020F7
:102970005C0000201E8800082046FFF70DFD06E0E1
:102980002046FFF709FD02E02046FFF705FD10BDD8
:1029900010B5EB48007890B9FFF7F9FEE9480078E8
:1029A000E9490870E948E749097850F82100E84901
:1029B000086008460068E7490860FFF7F0FC10BDB2
:1029C00010B50024022002F065F8FFF7E1FC044690
:1029D0000020E14908602046FFF7DEFC142002F0E9
:1029E00059F8FFF7D5FC0446DB480068DB4908606E
:1029F0000120DB4908702046FFF7CEFC10BD70B502
:102A00000026FFF774FDFFF7C3FC0646D5480068B3
:102A1000401CD44908603046FFF7BEFCC848007827
:102A2000012853D1D048007820B1012804D00228D1
:102A300009D103E001250BE0002509E00125012073
:102A4000C949087004E001250020C749087000BF8B
:102A500000BF05B970BDC548046833E0FFF798FCB6
:102A60000646E06A50B3E06A401EE062E06A28BBB6
:102A700094F8300000F0370040B114F8300F00F047
:102A8000C800207001206070303C02E0002084F813
:102A9000310094F8300000F0080078B93434A078A0
:102AA000B34909780843B24908702078B149085CF5
:102AB0006178084314F83419AE4A505464693046BA
:102AC000FFF76AFC94F832003F28C7D100BFC1E786
:102AD00040F223107047704710B590F8342001F190
:102AE0000B039B5C90F83540A34301F10B04A35406
:102AF00023469B5C23B98B7A90F83640A3438B72B4
:102B000010BD2DE9F04F05460F4690469946A87A2C
:102B100099490E5C05F10B00805D11F800B00BEBDC
:102B2000C60000F0FF0A894850F82A4000202034EF
:102B3000E0602760207C20EA0800207484F811906F
:102B4000207C203C00F0080068B994F836008849E1
:102B500009780843864908708648805D94F83510E6
:102B600008438449885529462046FFF7B5FF50465B
:102B7000BDE8F08F10B5774A1268D061754A1268C7
:102B800092F8343000F10B02D25C724B1B6893F860
:102B900035301A436F4B1B6893F8344000F10B0338
:102BA0001A55827A6B4B1B6893F836301A4382723F
:102BB000684A126892F834106E4A525C654B1B6882
:102BC00093F835309A436B4B5A541A46525C42B9CB
:102BD000604A126892F83630654A12789A43644B1C
:102BE0001A7010BD014600228A72002005E0002301
:102BF00001F10B021354421CD0B20828F7D37047DE
:102C000005E011F8013B00F8013B531E9AB2002A7F
:102C1000F7D170470146002002E0491C421CD0B2A7
:102C20000A78002AF9D170472DE9F84F05460F467A
:102C300090469946DDE90AAB00200090FFF7A8FB1B
:102C400000904E480468002C75D0183454F8040CD9
:102C50004A4908600098FFF79FFB44F8187CA57666
:102C6000002020766076606144F814BC44F80CAC17
:102C700044F8108C0C9824F8080C24F8069C0020CA
:102C8000E077E810207705F00700E076217F01204B
:102C90008840A077E17E0120884060770020606056
:102CA000E060A0602062A0626062E0622063AFF238
:102CB00078306063183C002606E0002104F15000E3
:102CC00040F82610701CC6B2002EF6D02046FFF742
:102CD0000DFC2046FFF7B8FBFFF75AFB00901B489E
:102CE00040F825402148006860610020A0611F482D
:102CF000006810B11D48006884611C4804603434C9
:102D0000A0781B49097808431949087020781949A7
:102D1000085C6178084314F83419164A505418486E
:102D20000078401C164908700098FFF735FB00201A
:102D3000BDE8F88FFFE70098FFF72EFB4220F7E78A
:102D4000820000207800002077000020A8210020C9
:102D50009000002088000020840000206C000020EB
:102D600074000020A00000209800002094000020A3
:102D7000790000207A0000201E8800088C000020C6
:102D8000830000202DE9F05F04460F4691461E4661
:102D90004FF0000B2078052804D00120307000206F
:102DA000BDE8F09F09F0800ABAF1000F04D029F0C5
:102DB00080094FF0010801E04FF00008002030705A
:102DC000FFF7E6FA8346B9F1000F2CD0B9F1010FF5
:102DD0003BD0B9F1020F03D0B9F1030F46D111E096
:102DE000208900EA0705BD4206D1B8F1010F05D1DF
:102DF0002089A843208101E0702030705846FFF7F9
:102E0000CBFA3AE0208900EA070535B1B8F1010FA5
:102E100005D12089A843208101E0702030705846F8
:102E2000FFF7BAFA29E0208927EA0005BD4206D15A
:102E3000B8F1010F05D120892843208101E07020DD
:102E400030705846FFF7A8FA17E0208927EA0005F6
:102E500035B1B8F1010F05D120892843208101E067
:102E6000702030705846FFF797FA06E05846FFF793
:102E700093FA00256F20307000BF00BF28468FE70F
:102E80002DE9F04106460D460027FA48007820B1AA
:102E9000102028700020BDE8F081FFF779FA07467E
:102EA000F548046884B100684068F349086005206B
:102EB0002070268100206060F0A0E0603846FFF7B7
:102EC0006BFA0020287004E03846FFF765FA72209C
:102ED00028702046DFE730B501464A6808682AB9FD
:102EE000CC68606028B10025456002E0106000B148
:102EF00042608B6800255D6230BDF0B506460F4626
:102F0000B4680020283460602780207A00F0DF0059
:102F1000207200206072207A283C88B93434A0786E
:102F2000D74909780843D64908702078D549085C04
:102F30006178084314F83419D24A5054012500E04E
:102F400000253046FFF7C7FF2846F0BD2DE9F047C2
:102F50000446894615464FF0000AC648007820B15D
:102F60000F2028702046BDE8F0872078052803D080
:102F7000012028702046F6E7FFF70AFA82466068CB
:102F800008B1012700E00027B9F1000F03D0B9F123
:102F9000010F3CD119E08FB9B8A0E060002020708B
:102FA000B5480068606000202081B3480460504646
:102FB000FFF7F2F900202870002605E05046FFF7E1
:102FC000EBF949202870264628E0D4F8048005E073
:102FD00000214046FFF791FFD8F80080B8F1000FBC
:102FE000F6D1A6A0E06000202070A34800686060D1
:102FF00000202081A04804605046FFF7CDF9012F42
:1030000001D1FFF722FC00202870002606E0504680
:10301000FFF7C2F907202870264600BF00BF3046E0
:10302000A1E72DE9F04105460E46144600279148D8
:10303000007820B1112020700020BDE8F081FFF75A
:10304000A7F907462878052806D03846FFF7A4F9DF
:10305000012020700020F0E7E86830603068FFF75A
:10306000D9FD80463846FFF797F90020207040468A
:10307000E3E72DE9F04105460E46144600277D485A
:10308000007818B112202070BDE8F081FFF780F9B8
:1030900007462878052805D03846FFF77DF9012036
:1030A0002070F1E7EE603846FFF776F900202070D7
:1030B00000BFE9E7F0B51446059E734F3F6897F8E7
:1030C000307047F02007DFF8C0C1DCF800C08CF892
:1030D00030700027DFF8B0C1DCF800C08CF8317028
:1030E000694F3F68FE62684F3F6879620C828B745B
:1030F000654F3F688F6047680F6000274F60C8606A
:10310000456805B1696041605F4F3F6897F83420BA
:103110005C4FBF5CDFF870C1DCF800C09CF835C0C4
:1031200027EA0C07DFF85CC10CF802706746BF5C49
:103130005FB9554F3F6897F836C0514F3F7827EA3F
:103140000C07DFF83CC18CF80070F0BD2DE9F04FA2
:1031500089B005460F4691469A46129E002002907D
:103160004448007828B102203070002009B0BDE842
:10317000F08F4648007818B10D2030700020F5E738
:103180002878052803D0012030700020EEE709F0F0
:10319000800BBBF1000F04D009F07F094FF001084C
:1031A00001E04FF00008FFF7F3F80290B9F1000FCB
:1031B0004AD0B9F1010F78D0B9F1020F03D0B9F1BB
:1031C000030F71D120E0288900EA0704BC420FD127
:1031D000B8F1010F02D12889A04328812A4800684C
:1031E00004850298FFF7D8F8002030702046BDE72C
:1031F0004B463A4604A92846CDF800A0FFF75AFFEF
:103200000298FFF7C9F878E0288900EA07047CB142
:10321000B8F1010F02D12889A04328811A4800681B
:1032200004850298FFF7B8F80020307020469DE72B
:103230004B463A4604A92846CDF800A0FFF73AFFCE
:103240000298FFF7A9F858E0288927EA0004BC4251
:103250001ED1B8F1010F02D12889204328810A48E4
:10326000006804850298FFF797F800203070204628
:103270007CE71AE075000020640000203F00000099
:10328000790000207A0000208800002076000020CD
:103290004B463A4604A92846CDF800A0FFF70AFF9E
:1032A0000298FFF779F828E01FE0288927EA000450
:1032B0007CB1B8F1010F02D1288920432881B1489F
:1032C000006804850298FFF767F8002030702046F8
:1032D0004CE74B463A4604A92846CDF800A0FFF734
:1032E000E9FE0298FFF758F807E00298FFF754F854
:1032F00000246F203070204638E700BFFFF7A5FAA2
:10330000FFF746F802909F48006890F8310020B31C
:103310009C48006890F831000390002099490968A2
:1033200081F8310004A8FFF7D6FD0020954909680F
:1033300081F830000298FFF72FF800240398012845
:1033400005D0022802D10E20307003E000BF0A2011
:10335000307000BF00BF204608E78A480068048D2F
:10336000B8F1010F1ED1B9F1000F0ED0B9F1010F64
:103370000CD0B9F1020F03D0B9F1030F0AD100E06C
:1033800000BF2889A04328810BE000BF2889204383
:10339000288106E00298FEF7FFFF6F2030700020C2
:1033A000E4E600BF0298FEF7F7FF002030702046E9
:1033B000DCE670B50025FEF7EBFF054671480068B6
:1033C000048D2846FEF7E8FF204670BD2DE9FC5F1E
:1033D0000446894692461E46002000902078052823
:1033E00004D0012030700020BDE8FC9FFEF7D0FF24
:1033F0000090BAF1000F03D0BAF1010F0AD104E036
:10340000208920EA090020810BE0208940EA090098
:10341000208106E00098FEF7BFFF71203070002089
:10342000E2E700BF4FF0000B656855E0A87C40B3B1
:10343000012838D0022802D0032844D111E0208985
:10344000298A00EA0107288AB84209D13946284664
:10345000FFF753FD8046B8F1010F01D14FF0010B8A
:1034600038E02089298A00EA01074FB13946284609
:10347000FFF743FD8046B8F1010F01D14FF0010B7A
:1034800028E0288A218920EA0107288AB84209D140
:1034900039462846FFF731FD8046B8F1010F01D1CA
:1034A0004FF0010B16E0288A218920EA01074FB16D
:1034B00039462846FFF721FD8046B8F1010F01D1BA
:1034C0004FF0010B06E00098FEF766FF6F203070AA
:1034D000002089E700BF2D68002DA7D10098FEF7D6
:1034E0005BFFBBF1010F01D1FFF7AFF9FEF750FF12
:1034F0000090208901900098FEF74EFF0020307068
:10350000019871E72DE9F04104460D460027207827
:10351000052804D0012028700020BDE8F081FEF7C6
:1035200037FF074626893846FEF736FF0020287009
:103530003046F2E72DE9F04150211348FFF774F8C7
:1035400000250EE0681C86B20F4800EB051400EB66
:103550000617002020706760AFF2E020E060681C72
:1035600085B2042DEED3084800EB0514002020702E
:103570006060AFF2F820E060034804490860BDE8ED
:10358000F081000088000020581D00206400002009
:1035900070B5044600262078012801D0002070BDB7
:1035A000FEF7F6FE06466568002060603046FEF7CE
:1035B000F3FE2846F3E770B505460026E348007899
:1035C00008B1002070BDFEF7E3FE0646E04804683F
:1035D000006820B1DE4800684068DD490860304678
:1035E000FEF7DAFE3CB101202070002020816560EA
:1035F0002046FFF7F7FA2046E4E72DE9F0470446B6
:10360000884615464FF000092078012804D0012093
:1036100028702046BDE8F087CC48007818B10F200C
:1036200028702046F6E7FEF7B3FE8146A07A08B17F
:10363000012700E00027B8F1000F03D0B8F1010F17
:1036400035D117E07FB900202070C1480068606064
:1036500000202081BE4804604846FEF79DFE002001
:103660002870002605E04846FEF796FE492028709F
:10367000264623E005E00023022219462046FFF7F4
:1036800040FAA07A0028F6D12070B1480068606046
:1036900000202081AE4804604846FEF77DFE012FE1
:1036A00001D1FFF7D2F800202870002606E0484636
:1036B000FEF772FE07202870264600BF00BF304686
:1036C000A8E72DE9F04105460F4614464FF00008E3
:1036D0002878012804D0012020700020BDE8F08166
:1036E0009A48007818B1022020700020F6E7994827
:1036F000007818B10D2020700020EFE7FEF748FE9B
:1037000080466E6846B1002068604046FEF744FE81
:10371000002020703046E1E78F48006890F83000C4
:1037200040F002008C49096881F8300000208A4985
:10373000096881F8310088480068C7622846FFF7A9
:1037400019FA4046FEF728FEFFF77FF8FEF720FE45
:1037500080468148006890F8310020B101280DD0E2
:1037600002280AD105E07C480068066A0020207023
:103770000DE000260E20207009E000BF29467648A3
:103780000068FFF7A9F900260A20207000BF00BFDB
:1037900000207149096881F830006F49096881F893
:1037A00031006D490968C8616B4909680862404683
:1037B000FEF7F2FD304691E72DE9F04104460F4651
:1037C00015464FF000082078012804D00120287009
:1037D0000020BDE8F081FEF7DBFD8046A07A20B333
:1037E00000267FB1012F0CD107E002231A460021E9
:1037F0002046FFF786F9701CC6B2A07A0028F4D1E3
:1038000009E000BF02231A4600212046FFF779F99C
:10381000701CC6B200BF00BF4046FEF7BDFDFFF7FB
:1038200014F80E2028703046D3E74046FEF7B4FD6A
:103830000020287000BFCCE770B504460D46002676
:103840002078012801D0012070BDFEF7A1FD0646B9
:10385000A07A60B10023022229462046FFF751F9E1
:103860003046FEF799FDFEF7F0FF0020ECE76068B8
:1038700020B13046FEF790FD1420E5E76560304644
:10388000FEF78AFD0020DFE72DE9F04104460E46F1
:10389000154600272078012802D00120BDE8F081DC
:1038A000FEF776FD0746A07AE8B105F0010050B1B9
:1038B00005E00023022231462046FFF722F9A07AD4
:1038C0000028F6D105E00023022231462046FFF70A
:1038D00018F93846FEF760FD05F0040008B9FEF758
:1038E000B4FF0020DAE7606820B13846FEF754FDE7
:1038F0001420D3E766603846FEF74EFD0020CDE782
:103900002DE9F04704460D464FF0000920780128C4
:1039100002D00120BDE8F087FEF73AFD8146A07A8B
:10392000287304F10B0705F10408002605E017F8D9
:10393000010B08F8010B701CC6B2082EF7D36068A3
:1039400028604846FEF728FD0020E3E775000020C8
:103950006000002076000020880000202DE9F04162
:1039600006460D464FF000083078022804D00120AA
:1039700028700020BDE8F081FEF70AFD80467468DB
:10398000E08A78B12169081D20610F68E08A401E35
:10399000E082A1682069884201D16068206100202E
:1039A000287002E01F20287000274046FEF7F4FC34
:1039B0003846DFE72DE9F04106460F464FF0000894
:1039C000F748007810B10020BDE8F081FEF7E0FC78
:1039D0008046F4480568006820B1F24800684068F5
:1039E000F04908604046FEF7D7FC3DB3FEF7D0FC37
:1039F0008046ED480468C4B100680068EA49086080
:103A00004046FEF7C9FC666006EB8700A060E660F2
:103A10002661A7820020E0820220287000202881F1
:103A20006C602846FFF7DEF808E0DE480068686052
:103A3000DC4805604046FEF7AFFC00252846C3E79A
:103A40002DE9F0470446894615464FF0000A2078D4
:103A5000022804D0012028702046BDE8F087D04815
:103A6000007818B10F2028702046F6E7FEF790FC8A
:103A70008246A07A10B14FF0010801E04FF0000833
:103A8000B9F1000F03D0B9F1010F45D11FE0B8F132
:103A9000000F15D16668C44800683060C2480660EF
:103AA00000202070BF480068606000202081BD4871
:103AB00004605046FEF770FC00202870002705E0E7
:103AC0005046FEF769FC4920287027462BE005E0A8
:103AD0000023042219462046FFF713F8A07A002895
:103AE000F6D16668B04800683060AF4806600020D4
:103AF0002070AC480068606000202081A948046004
:103B00005046FEF749FCB8F1010F01D1FEF79DFECA
:103B100000202870002706E05046FEF73DFC0720F5
:103B20002870274600BF00BF384696E770B50546A7
:103B30000026FEF72DFC06466C686068E060606851
:103B400020610020E0823046FEF726FC002070BD98
:103B50002DE9F0470746884615464FF000093878AA
:103B6000022804D0012028700020BDE8F0878C488E
:103B7000007818B1022028700020F6E78B48007802
:103B800018B10D2028700020EFE7FEF701FC8146F8
:103B90007C68E08A98B12169081D20610E68E08A7E
:103BA000401EE082A1682069884201D160682061DE
:103BB0004846FEF7F1FB002028703046D5E77C48E8
:103BC000006890F8300040F004007949096881F8F5
:103BD000300000207649096881F831007448006897
:103BE000C0F82C803846FEF7C5FF4846FEF7D4FBE8
:103BF000FEF72BFEFEF7CCFB81466D48006890F87F
:103C0000310020B101280DD002280AD105E0684812
:103C10000068066A002028700DE000260E2028703B
:103C200009E000BF394662480068FEF755FF0026EC
:103C30000A20287000BF00BF00205D49096881F894
:103C400030005B49096881F8310059490968C86149
:103C50005749096808624846FEF79EFB304684E7EC
:103C60002DE9F04104460F4615464FF00008207834
:103C7000022804D0012028700020BDE8F081FEF762
:103C800087FB8046A07A20B300267FB1012F0CD19C
:103C900007E00223042200212046FEF732FF701CB9
:103CA000C6B2A07A0028F4D109E000BF02230422A2
:103CB00000212046FEF725FF701CC6B200BF00BFE2
:103CC0004046FEF769FBFEF7C0FD0E202870304627
:103CD000D3E74046FEF760FB0020287000BFCCE72A
:103CE0002DE9F04105460E4600272878022802D02B
:103CF0000120BDE8F081FEF74BFB0746A87A60B1D2
:103D00000023042231462846FEF7FBFE3846FEF724
:103D100043FBFEF79AFD0020EBE76C68E08AA18A7E
:103D2000884204DB3846FEF737FB1E20E1E7E168F6
:103D3000081DE0600E60E08A401CE082D4E90210B9
:103D4000884201D16068E0603846FEF725FB00201C
:103D5000CFE72DE9F04105460E46002728780228D6
:103D600002D00120BDE8F081FEF712FB0746A87AD9
:103D700060B10023042231462846FEF7C2FE3846D1
:103D8000FEF70AFBFEF761FD0020EBE76C68E08AB6
:103D9000A18A88420EDB3846FEF7FEFA1E20E1E7D4
:103DA00075000020600000209C00002076000020AC
:103DB0008800002061682069884201D1A0682061E4
:103DC0002069001F206120690660E08A401CE082B3
:103DD0003846FEF7E1FA0020C4E72DE9F041054638
:103DE0000F4616464FF000082878022802D001201E
:103DF000BDE8F081FEF7CCFA8046A87AE8B106F07B
:103E0000010050B105E00023042239462846FEF7A0
:103E100078FEA87A0028F6D105E00023042239466E
:103E20002846FEF76EFE4046FEF7B6FA06F004009E
:103E300008B9FEF70AFD0020DAE76C68E08AA18A7B
:103E4000884204DB4046FEF7A7FA1E20D0E706F0C2
:103E5000020058B161682069884201D1A0682061E0
:103E60002069001F20612069076009E0E168081DE2
:103E7000E0600F60D4E90210884201D16068E06020
:103E8000E08A401CE0824046FEF786FA0020AFE759
:103E90002DE9F04705460C464FF0000A2878022825
:103EA00002D00120BDE8F087FEF772FA8246A87AB8
:103EB000207405F10B0804F10809002705E018F843
:103EC000010B09F8010B781CC7B2082FF7D36E68F5
:103ED000F08A18B130690068206001E0002020609D
:103EE000F08AA080B08AE0805046FEF755FA0020A4
:103EF000D8E72DE9F04178211048FEF795FB002422
:103F00000DE0601C86B204EB44000C4901EBC005D7
:103F100006EB460001EBC0072F60601C84B2042C46
:103F2000EFD304EB4400054901EBC00500202860F5
:103F3000084603490860BDE8F0810000982600208B
:103F40009C00002070B5044600262078032801D08C
:103F5000002070BDFEF71CFA0646258915B12089A0
:103F6000401E20813046FEF717FA2846F1E770B56B
:103F700005460026D248007808B1002070BDFEF743
:103F800007FA0646CF480468006820B1CD480068AB
:103F90004068CC4908603046FEF7FEF93CB103208A
:103FA00020702581002060602046FEF71BFE204621
:103FB000E4E72DE9F0470446884615464FF000092E
:103FC0002078032804D0012028702046BDE8F0871F
:103FD000BB48007818B10F2028702046F6E7FEF79E
:103FE000D7F98146A07A08B1012700E00027B8F18F
:103FF000000F03D0B8F1010F35D117E07FB90020D1
:104000002070B0480068606000202081AD480460E6
:104010004846FEF7C1F900202870002605E0484612
:10402000FEF7BAF949202870264623E005E0002370
:10403000012219462046FEF764FDA07A0028F6D139
:104040002070A04800686060002020819D480460C6
:104050004846FEF7A1F9012F01D1FEF7F6FB00203B
:104060002870002606E04846FEF796F907202870DB
:10407000264600BF00BF3046A8E72DE9F0410546BF
:104080000E46144600272878032803D0012020700C
:10409000BDE8F0818A48007810B102202070F7E76F
:1040A0008948007810B10D202070F1E7FEF770F913
:1040B0000746288940B12889401E28813846FEF7E6
:1040C0006BF900202070E3E78048006890F830002A
:1040D00040F001007D49096881F8300000207B49EB
:1040E000096881F8310079480068C6622846FEF701
:1040F00041FD3846FEF750F9FEF7A7FBFEF748F9F9
:1041000007467248006890F8310020B1012809D0B4
:10411000022806D102E0002020700BE00E20207063
:1041200008E000BF294669480068FEF7D5FC0A2070
:10413000207000BF00BF00206449096881F830008A
:104140006249096881F8310060490968C8613846E8
:10415000FEF722F900BF9BE72DE9F04104460F4628
:1041600015464FF000082078032804D0012028705D
:104170000020BDE8F081FEF70BF98046A07A20B35D
:1041800000267FB1012F0CD107E00223012200217C
:104190002046FEF7B6FC701CC6B2A07A0028F4D107
:1041A00009E000BF0223012200212046FEF7A9FCFE
:1041B000701CC6B200BF00BF4046FEF7EDF8FEF728
:1041C00044FB0E2028703046D3E74046FEF7E4F863
:1041D0000020287000BFCCE770B504460025207889
:1041E000032801D0012070BDFEF7D2F80546A07A61
:1041F00060B10023012219462046FEF782FC2846C2
:10420000FEF7CAF8FEF721FB0020ECE720894FF605
:10421000FF71884207D22089401C20812846FEF782
:10422000BBF80020DFE72846FEF7B6F83320DAE7D0
:104230002DE9F04704460D464FF000092078032889
:1042400002D00120BDE8F087FEF7A2F88146A07AEF
:10425000A87204F10B0705F10208002605E017F823
:10426000010B08F8010B701CC6B2082EF7D3208989
:1042700028804846FEF790F80020E3E72DE9F0415A
:1042800004460E46154600272078032803D0012057
:104290002870BDE8F081FEF77BF807460020287003
:1042A000208908B1268105E0A07A08B9268101E0BD
:1042B000492028703846FEF76FF800BFE9E7000094
:1042C000750000206000002076000020880000209B
:1042D0002DE9FF5F8146884600200090FEF758F8E0
:1042E0000090F94850F8280030B10098FEF754F8D3
:1042F000282004B0BDE8F09FB9F1FF0F03D1F348C7
:10430000006890F83290F04850F8294024B900989D
:10431000FEF742F82920ECE7012C04D10098FEF7C3
:104320003BF84320E5E74FEAE80708F00700039071
:104330000120B84000F0FF0A01210398814001F0FC
:10434000FF0B0020E04941F82900084640F82840CA
:1043500014F8346FA07802906078343C0190DC4807
:10436000815D01980140D1B1D948805D01998843B0
:10437000D74988550846805D28B9D6480078029903
:104380008843D4490870D348007840EA0A00D149EC
:104390000870CF48C05D40EA0B00CD49C855E569BB
:1043A000D5B105F10B00805D0199884305F10B0142
:1043B00088550846805D18B9A87A02998843A87282
:1043C000A87A40EA0A00A87205F10B00C05D40EA35
:1043D0000B0005F10B01C85584F8328084F8347065
:1043E000039884F8330084F836A084F835B0009838
:1043F000FDF7D2FFB8480078012801D1FEF725FA71
:10440000002076E72DE9FE4F06460F4690461C46F3
:104410004FF00009FDF7BCFF8146B048007828B195
:104420004846FDF7B9FF3C20BDE8FE8FA64850F88E
:10443000240060BB0120A44941F824004846FDF750
:10444000ABFF0023424639463046FEF701F882466C
:1044500000200090019003460246514602902046FB
:10446000FEF7E2FB054635B99B48007801280CD1E0
:10447000FEF7EBF909E0FDF78BFF8146002092493A
:1044800041F824004846FDF787FF2846CCE7484618
:10449000FDF782FF2820C7E702F0010343B102F0D5
:1044A00002032BB102E0491E002308C00029FAD103
:1044B00070472DE9F04F85B081468A4693461C46E9
:1044C000DDE90F78129D00200390FDF761FF039056
:1044D0008248007830B10398FDF75EFF3C2005B0BC
:1044E000BDE8F08F784850F8240088BB0120764959
:1044F00041F824000398FDF74FFF2A46414638460D
:10450000FFF7CAFF2B465A4651464846FDF7A0FF23
:1045100004901198CDE9008002953A4620460E9B02
:104520000499FEF781FB064636B96B4800780128EE
:104530000CD1FEF78AF909E0FDF72AFF039000206D
:10454000614941F824000398FDF726FF3046C6E78D
:10455000FFE70398FDF720FF2820C0E72DE9F04191
:10456000054600275D48007810B14020BDE8F08185
:104570003F2D01D13E20F9E7FDF70AFF0746FF2D49
:1045800003D15248006890F832504F4850F8254007
:1045900024B93846FDF700FF4320E7E7012C04D19A
:1045A0003846FDF7F9FE3D20E0E714F8340F48499E
:1045B000085C617888432178454A505414F83409DE
:1045C0001146085C30B994F83610424800788843A8
:1045D00040490870E06918B12046E169FEF77CFAAD
:1045E000666A16B13046FEF776FC0020E06284F879
:1045F000300084F831003A480078FF2804D2384867
:104600000078401C364908703846FDF7C5FEFEF7B5
:1046100062FAFDF7BDFE07463148007820B1304808
:104620000078401E2E4908702046FDF70EFF2D48E9
:104630000078401E2B4908700020234941F82500CE
:10464000A06930B900206169886127496069086004
:1046500005E0D4E905014861D4E9051088612348E3
:10466000006860612148046021A0E0643846FDF7DD
:1046700093FE19480078012801D1FEF7E6F80020E2
:1046800074E72DE9F041044600273F2C02D13E207B
:10469000BDE8F081FF2C0BD1FDF77AFE07460B48F1
:1046A000006890F837603846FDF776FE3046EFE751
:1046B000FDF76EFE0746044850F82450D5B9384639
:1046C000FDF76AFE4320E3E7A821002088000020D0
:1046D0007A00002079000020820000207500002070
:1046E0007600002083000020940000208C00002031
:1046F0003F000000012D04D13846FDF74DFE3D205E
:10470000C6E73F2085F837003846FDF745FE002014
:10471000BEE72DE9F04706460F4614464FF0000865
:10472000D648007820B1112020700020BDE8F08725
:10473000FDF72EFE8046FF2E03D1D148006890F889
:104740003260D04850F8265035B94046FDF724FE77
:10475000432020700020E9E7012D06D14046FDF7F7
:104760001BFE432020700020E0E7E86C38603868CA
:10477000FEF750FA81464046FDF70EFE00202070FD
:104780004846D3E72DE9F04106460F4614464FF060
:104790000008BA48007818B112202070BDE8F081F6
:1047A000FDF7F6FD8046FF2E03D1B548006890F86E
:1047B0003260B44850F826502DB94046FDF7ECFD64
:1047C00043202070EAE7012D05D14046FDF7E4FDC6
:1047D00043202070E2E7EF644046FDF7DDFD002056
:1047E000207000BFDAE770B505460026FDF7D0FD62
:1047F0000646A44850F8254024B93046FDF7CCFDC4
:10480000462070BD012C04D13046FDF7C5FD432084
:10481000F7E794F8300000F0080060B314F8300FA8
:1048200000F0F700207014F83009F8B9E06AC8B950
:104830003434A07894490978084393490870207863
:104840009249085C6178084314F834198F4A50542F
:104850003046FDF7A1FD8E480078012809D1FDF70B
:10486000F4FF06E03046FDF797FD02E03046FDF725
:1048700093FD0020C5E73046FDF78EFD4420C0E7DC
:104880002DE9F04707460D464FF0000A002028604A
:104890006860FDF77DFD8246FF2F03D178480068F0
:1048A00090F83270774850F827402CB95046FDF701
:1048B00073FD4320BDE8F087012C04D15046FDF77D
:1048C0006BFD4320F6E7207C00F0010020B9504644
:1048D000FDF762FD4520EDE70026D4F80C90D4F8F2
:1048E00008805046FDF758FD00E0761C58F8041B80
:1048F0000029FAD0B0002860A9EB060080006860AB
:104900000020D7E72DE9F04105464FF00008FDF7FC
:104910003FFD8046FF2D05D15948006890F8325080
:10492000012608E05648006890F83200A84201D1FC
:10493000012600E00026534850F825402CB9404697
:10494000FDF72AFD4820BDE8F081012C04D1404646
:10495000FDF722FD4320F6E794F834704B48C05D24
:1049600094F8351088434949C8550846C05D30B9A8
:1049700094F836104448007888434349087094F806
:10498000300040F0080084F830004046FDF704FD98
:10499000012E01D1FDF759FF0020D4E72DE9F041A8
:1049A00005460E460027FDF7F3FC0746FF2D03D111
:1049B0003348006890F83250324850F825402CB9FE
:1049C0003846FDF7E9FC2920BDE8F081012C04D12F
:1049D0003846FDF7E1FC4320F6E7542221463046F5
:1049E000FEF70EF93846FDF7D7FC0020ECE72DE97D
:1049F000F04704460E4617464FF00009FDF7C8FC85
:104A00008146FF2C02D11E48056802E01D4850F87F
:104A1000245005F1500050F826804846FDF7BCFCB4
:104A2000002038704046BDE8F0872DE9F047044685
:104A30000E46174698464FF00009FDF7A9FC81463F
:104A4000FF2C02D10E48056802E00E4850F82450B1
:104A500005F1500040F826704846FDF79DFC002007
:104A600088F80000BDE8F08710B505480068FDF73C
:104A70003FFDFF20FFF772FD10BD00007500002014
:104A800088000020A8210020790000207A00002062
:104A90008200002070B5054600266348007800B10A
:104AA00070BD6248007800B1FAE71DB3FDF770FCF5
:104AB00006465F48006890F834405E48005D5C49F7
:104AC000096891F8351088435A4908550846005D31
:104AD00040B95748006890F8361057480078884326
:104AE0005549087052480068C5623046FDF754FCCD
:104AF000FDF7ABFE00BFD3E72DE9F04104460D46BC
:104B000016461F464848007810B15520BDE8F08190
:104B10004648007808B13220F8E7B81CC82148435D
:104B20004FF47A71B0FBF1F14FF461606043C5EB73
:104B3000051200EB8200304400EBC00202EB0010D3
:104B400001EBC0084046FFF7A5FF0020DEE770B587
:104B5000054600263F2D01D32A2070BDFDF718FC25
:104B60000646364850F8254024B93046FDF714FC77
:104B70004320F2E7012C04D13046FDF70DFC432021
:104B8000EBE7E06A20B93046FDF706FC5020E4E789
:104B90000020E06294F8300000F0370040B114F8D3
:104BA000300F20F03700207001206070303C02E0B0
:104BB000002084F8310094F8300000F00800A8B913
:104BC0003434A0781C49097808431B4908702078C0
:104BD0001849085C6178084314F83419154A505490
:104BE0003046FDF7D9FBFDF730FE02E03046FDF719
:104BF000D3FB0020B1E770B50025FDF7C9FB0546E2
:104C00000F4804682846FDF7C7FB204670BD70B505
:104C100004460025FDF7BCFB05460948046028460C
:104C2000FDF7BAFB70BD0000750000207600002083
:104C3000880000207A00002079000020A8210020B0
:104C4000A000002031490143314A1160704770B51E
:104C5000002100230F22C47804B32D4C246804F4EF
:104C6000E064C4F5E064210AC1F10403CA40447859
:104C700004FA03F18478144021430901254C067895
:104C8000A155047804F01F050124AC4005786D118E
:104C9000AD0005F1E025C5F8004109E0047804F015
:104CA0001F050124AC401C4D0678761145F82640BE
:104CB00070BD1A4A0A400243154B1B1F1A60704709
:104CC00039B1134A121D12680243114B1B1D1A60A1
:104CD00006E00F4A121D126882430D4B1B1D1A601D
:104CE0007047042808D14FF0E021096941F0040120
:104CF0004FF0E022116107E04FF0E021096921F057
:104D000004014FF0E0221161704700000000FA0535
:104D10000CED00E000E400E080E100E080FFFF1F18
:104D200010B50446FA48844208D10121401500F02C
:104D3000E3FD0021601500F0DFFD17E0F548844237
:104D400008D10121001500F0D7FD0021201500F049
:104D5000D3FD0BE0F048844208D10121C80300F0E4
:104D6000CBFD00214FF4004000F0C6FD10BD30B572
:104D70000246002000235068E84C20400D790C6862
:104D800044EA0524204350609068E54C2040D1E976
:104D900002542C434D7944EA450420439060D06A84
:104DA00020F470000C7C641EE4B2234340EA0350FC
:104DB000D06230BD00210160017141718160C1602C
:104DC00001210174704721B1826842F001028260C2
:104DD00003E0826822F001028260704721B182689C
:104DE00042F48072826003E0826822F48072826002
:104DF000704710B50023CBB21AB144681C4344601D
:104E000002E044689C43446010BD816841F00801A1
:104E100081607047014600208A6802F008020AB1EA
:104E2000012000E000207047816841F004018160AA
:104E30007047014600208A6802F004020AB101208E
:104E400000E00020704721B1826842F4A002826035
:104E500003E0826822F4A0028260704701460020CD
:104E60008A6802F480020AB1012000E00020704745
:104E700010B50A4600210023416821F46041531E09
:104E800041EA4331416010BD21B1426842F4006201
:104E9000426003E0426822F4006242607047F0B56D
:104EA00004460D4600200021092D11DDE068A5F122
:104EB0000A0606EB4607072606FA07F18843A5F11E
:104EC0000A0606EB460603FA06F10843E0600CE02A
:104ED000206905EB4507072606FA07F1884305EB2D
:104EE000450603FA06F108432061072A0FDA606BD2
:104EF000561E06EB86071F2606FA07F18843561E44
:104F000006EB860605FA06F10843606322E00D2AE7
:104F10000FDA206BD61F06EB86071F2606FA07F16D
:104F20008843D61F06EB860605FA06F10843206380
:104F300010E0E06AA2F10D0606EB86071F2606FACE
:104F400007F18843A2F10D0606EB860605FA06F185
:104F50000843E062F0BD21B1826842F480128260B1
:104F600003E0826822F48012826070470146C86CB8
:104F700080B2704766484C300068704721B1426883
:104F800042F48062426003E0426822F48062426040
:104F9000704721B1426842F48052426003E04268A7
:104FA00022F48052426070470A460021816821F451
:104FB000E04111438160704721B1826842F40042B0
:104FC000826003E0826822F400428260704721B16F
:104FD000826842F40212826003E0826822F40212C4
:104FE00082607047014600208A6802F400120AB10C
:104FF000012000E000207047F0B50446154600206F
:1050000000220026092911DDE068A1F10A0707EB5B
:10501000470C072707FA0CF29043A1F10A0707EBA8
:10502000470703FA07F21043E0600CE0206901EB48
:10503000410C072707FA0CF2904301EB410703FAF2
:1050400007F210432061A06BC0F30156EF1C06F17C
:10505000010CA7EB0C0707EB870C1F2707FA0CF2D4
:105060009043EF1C06F1010CA7EB0C0707EB870739
:1050700001FA07F21043A063F0BD10B50A46002103
:105080000023816B21F44011531E41EA03518163D7
:1050900010BD08B5002300930090009B0B440093C3
:1050A000009B1A6008BD08B50246002000900092DF
:1050B00001F12800009B184400900098006880B21D
:1050C00008BD0A4600214168164B19401143416052
:1050D00070474162826270470A460021416821F0B0
:1050E0001F0111434160704740B109490831096807
:1050F00041F40001064A0832116007E00449083112
:10510000096821F40001024A08321160704700006A
:105110000024014000280140003C0140FFFEF0FF58
:10512000FDF7F1FFFFFD3FFF0246002013680B4033
:105130000BB1012000E000207047CA4302607047B5
:1051400070B502460020002300240B125568CEB231
:1051500005EA060415681D4015B10CB1012000E0F8
:10516000002070BD00220A12D34303607047000084
:10517000002044490860091D0860091D0860091DD8
:10518000086041483F4914310860704700213D499B
:105190008279002A3AD00A46126803689A430B467D
:1051A0001A600A1D126803689A430B1D1A6002797F
:1051B00011440A6803681A430A60324A08321268C6
:1051C00003689A432F4B08331A601A1D126803684C
:1051D0009A432C4B0C331A604279102A0ED11A1FB5
:1051E000126803681A43274B08331A601A1D1268A5
:1051F00003681A43234B0C331A600DE021494279AE
:1052000011440A6803681A430A6005E002791144F0
:105210000A6803689A430A607047002101600171BF
:105220000C214171002181717047164910310968C4
:105230000143144A10321160704701460020114AA0
:10524000143212680A400AB1012000E000207047C1
:105250000C49143108607047014600200022094BB8
:105260001B6803EA0102074B14331B680B4013B1A0
:105270000AB1012000E000207047024914310860A3
:105280007047000000040140FFFF0F0010B5044606
:10529000CC48844208D10121042000F02DFB0021DC
:1052A000042000F029FB46E0C748844208D10121D0
:1052B000082000F021FB0021082000F01DFB3AE04F
:1052C000C248844208D10121102000F015FB0021C2
:1052D000102000F011FB2EE0BD48844208D10121CE
:1052E000202000F009FB0021202000F005FB22E037
:1052F000B848844208D10121402000F0FDFA002185
:10530000402000F0F9FA16E0B348844208D10121A8
:10531000802000F0F1FA0021802000F0EDFA0AE090
:10532000AE48844207D10121801500F0E5FA002142
:10533000A01500F0E1FA10BD10B50121084600F0FB
:10534000DBFA0021012000F0D7FA10BD2DE9F04171
:10535000024600250026002000230024002791F8A3
:1053600003C00CF00F0591F803C00CF0100CBCF159
:10537000000F03D091F802C04CEA050591F800C077
:10538000BCF1000F31D0146800202BE04FF0010C6D
:105390000CFA00F3B1F800C00CEA03069E4220D1DB
:1053A00083004FF00F0C0CFA03F7BC4305FA03FC23
:1053B0004CEA040491F803C0BCF1280F06D14FF069
:1053C000010C0CFA00FCC2F814C00AE091F803C00A
:1053D000BCF1480F05D14FF0010C0CFA00FCC2F8EB
:1053E00010C0401C0828D1D31460B1F800C0BCF133
:1053F000FF0F34DD546800202EE000F1080C4FF060
:10540000010808FA0CF3B1F800C00CEA03069E424A
:1054100021D183004FF00F0C0CFA03F7BC4305FABF
:1054200003FC4CEA040491F803C0BCF1280F05D139
:1054300000F1080C08FA0CF8C2F8148091F803C0C7
:10544000BCF1480F07D100F1080C4FF0010808FA31
:105450000CF8C2F81080401C0828CED35460BDE878
:10546000F0814FF6FF710180022181700421C1702B
:1054700070470246002093680B400BB1012000E00A
:10548000002070470146886880B2704702460020BD
:10549000D3680B400BB1012000E0002070470146AB
:1054A000C86880B2704701617047416170470AB1B6
:1054B000016100E041617047C16070474FF4803284
:1054C0000A43826181618261826982697047024612
:1054D0000020434B18684FF68073184040EA0210D2
:1054E00008433F4B186070473E49C8617047F0B5AC
:1054F0000A46002300240021002500F00046B6F1F2
:10550000004F02D1364EF16901E0354E7168C0F3AB
:10551000034583B200F44016B6F5401F08D121F0D0
:1055200070612F4E766826F070662D4F7E6012E017
:1055300000F48016B6F5801F06D1032606FA05F49E
:10554000A14341F0706106E0460D360103FA06F60C
:10555000B14341F0706122B1460D360103FA06F6FF
:10556000314300F00046B6F1004F02D11C4EF1610C
:1055700001E01B4E7160F0BD30B500228B071C0F9F
:105580000F2303FA04F2164B08338C1053F824301F
:105590009343134C08348D1044F8253023468C1067
:1055A00053F824308C07240F00FA04F423430C4CE6
:1055B00008348D1044F8253030BD0A49DC310860CC
:1055C0007047000000080140000C0140001001403D
:1055D0000014014000180140001C0140002001405F
:1055E0000000014000002042DF48006840F0010058
:1055F000DD49086008464068DC490840DA494860EF
:1056000008460068DA490840D7490860084600683B
:1056100020F4802008600846406820F4FE004860BE
:105620004FF41F0088607047CF49096821F480312A
:10563000CD4A11601146096821F480211160B0F54E
:10564000803F03D0B0F5802F0ED106E0C64909682F
:1056500041F48031C44A116007E0C349096841F44C
:10566000A021C14A116000E000BF00BF704710B523
:1056700001460022002300204A11012A02D1BA4C1F
:10568000236806E0022A02D1B74C236A01E0B64C37
:10569000636A01F01F02012494401C400CB10120F8
:1056A00000E0002010BD38B5002000900024002547
:1056B00000BF3120FFF7DBFF05460098401C00903B
:1056C0000098B0F5A06F01D0002DF2D03120FFF787
:1056D000CEFF08B1012400E00024204638BD014679
:1056E0000020A14A106820F0F80040EAC1001060D4
:1056F0007047A04908607047024600209A4B5868DE
:1057000020F47C1042EA01031843974B586070471D
:1057100098490866704701460020934A506820F077
:1057200003000843506070478F48406800F00C0049
:105730007047014600208C4A506820F0F000084372
:105740005060704701460020874A506820F4E060AE
:1057500008435060704701460020834A506820F497
:10576000605040EAC1005060704729B17E4A527AC9
:1057700002437D4B5A7204E07B4A527A82437A4B51
:105780005A7270477B49D831086070470146002043
:10579000754A506820F4404008435060704700212B
:1057A000714A20321170704A82F82010012802D00C
:1057B00004280AD104E001216B4A2032117005E06F
:1057C0000521694A2032117000E000BF00BF704718
:1057D0006949086070476449096A0143624A116275
:1057E0007047654944390860704730B50021002290
:1057F000002400235C4D6D6805F00C0121B10429E3
:1058000005D0082923D105E05C4D056022E05B4D01
:1058100005601FE0544D6D6805F47012524D6D68BF
:1058200005F48034022505EB92421CB9544D5543D2
:1058300005600BE04C4D6D6805F400351DB1504D11
:105840005543056002E04D4D5543056002E04B4D68
:10585000056000BF00BF444D6D6805F0F001090907
:10586000484D6B5C0568DD4045603F4D6D6805F453
:10587000E061090A434D6B5C4568DD4085603A4D47
:105880006D6805F46051C90A3E4D6B5C4568DD40AA
:10589000C560354D6D6805F44041890B3A4D6B5C30
:1058A000C568B5FBF3F5056130BD29B12E4A5269D3
:1058B00002432D4B5A6104E02B4A526982432A4B22
:1058C0005A61704729B1284A92690243264B9A616E
:1058D00004E0254A92698243234B9A61704729B1BB
:1058E000214AD2690243204BDA6104E01E4AD269A0
:1058F00082431D4BDA61704729B11B4AD2680243CB
:10590000194BDA6004E0184AD2688243164BDA6019
:10591000704729B1144A12690243134B1A6104E01B
:10592000114A12698243104B1A617047124940397B
:10593000086070470F49C86470470B49C8717047C9
:105940000948406A40F08070074948627047014644
:105950000020054A92680A400AB1012000E00020B8
:105960007047014988727047001002400000FFF83C
:10597000FFFFF6FE000042428004424200127A001D
:1059800000093D00A4000020B400002010B504462A
:10599000BE48844208D101218014FFF7ADFF0021E9
:1059A000A014FFF7A9FF16E0B948844208D10121ED
:1059B0000014FFF7AEFF00212014FFF7AAFF0AE052
:1059C000B448844207D10121C013FFF7A2FF002190
:1059D000E013FFF79EFF10BD10B50022028802F40D
:1059E00041520B884C8823438C882343CC88234323
:1059F0000C8923434C8923438C892343CC8923433B
:105A00001A430280838B4FF2FF74234083830B8AF7
:105A1000038210BD2DE9F04F85B005460C464FF0CE
:105A2000000902274FF000084FF0010B0026B24694
:105A3000A88B4FF240010840A88302202884B5F8C3
:105A40001C90A068022801D100BF38E0A08810B9DE
:105A50004FF0010B01E04FF0020B8D48854200D161
:105A600000E000BF6846FFF7C0FEDDF800A0E08858
:105A7000B0F5007F0AD14FEA1A2000EB8000400009
:105A8000A168B0FBF1F0401D86B20BE04FEA4B106D
:105A9000BAFBF0F000EB80004000A168B0FBF1F031
:105AA000401D86B20A20B6FBF0F606F00108A6EB10
:105AB0000800C0F34F074FF6FF7000EA0828022FD6
:105AC00001DBFF2F02DD02274FF00008E08840EAEB
:105AD000080038432884A088A189084361880843C6
